:020000020000FC
:1000000000C00FE00EBF0FEF0DBF00E00BBF00EC14
:1000100005BF00E808B90FEF0ABB00E00BBB0FEF0C
:1000200007BB05E508BB00E005BBC1E08FEFB0E210
:100030007727716080E040E0C1E033D070FD74D07C
:1000400070FD7E7F20E010E004D052D09DD091D092
:10005000F1CFA52FA095A03011F010E014C0A0E1C1
:1000600010E011C0A52FA095A03031F0A695A6955F
:10007000A695A69520E00CC0A1E0A695A695A6950C
:10008000A69520E005C0A0FDEDCF1395A695FBCF6A
:10009000A0FD03C02395A695FBCF220F220F120FC0
:1000A000089550E060E020E000EF02B90FE003B9EE
:1000B0006BD051B10FE002B900EF03B965D021B1A7
:1000C000520F58BB503069F308955B2F0895582F95
:1000D000496D70657269616C20436F6C6C65676512
:1000E000496D70657269616C20436F6C6C65676502
:1000F000F0E0E0ED20E1109300C040D02A958F930E
:10010000852F42D041D040D03FD008950895F0E0EF
:10011000E0EE20E1C895102D109300C02FD02A9555
:1001200011F03196F7CF089530D000E300930080AE
:1001300031D00093008038D0009300801FD00FE3AF
:10014000009300801BD008E00093008017D001E0EE
:100150000093008013D008E3009300800FD00EE0DE
:10016000009300800BD006E00093008007D00027AA
:10017000089501E00093008001D00895009100806F
:1001800007FDFCCF01D008950895BEE4ADE11197BD
:10019000F1F70895B5E1A8E51197F1F70895B0E0FA
:1001A000A3E81197F1F70895BFEFAFEF1197F1F7BB
:0201B0000895B0
:00000001FF
