:020000020000FC
:040000000C946F01EC
:02007800ABC318
:10010000B6D3C5D0D3E0C0EED6D23FD362D24F93A0
:100110004BEB4F910895B1D3BAD0D3E0C0ECA8D245
:1001200034D342D348D264D335D02F935F936F93A7
:1001300050910808652F660F625F6093090850931D
:10014000EB0388D06F915F912F91D3E0C0EE04D084
:100150001CD33FD21AD308959F933F937F9370E0AF
:1001600032E02BE0F3E0ECEBB0D290910808772F6F
:10017000C2D1E6D1792FBFD1E3D13A95C1F7772F1C
:10018000BAD190910908792FB6D1DAD17F913F91F8
:100190009F9108957F938F935F9350FF70E051FF7D
:1001A00071E052FF72E053FF73E054FF80E055FFAF
:1001B00084E056FF88E057FF8CE0780F572F50936C
:1001C00008085F917F918F910895B1D256D35FD087
:1001D000D3E0C0EC4DD2D9D2E7D2D3E0C0EE70D29A
:1001E000D4D2F7D106D0D1D2A2D22BD01BD0CDD22F
:1001F00008950F930091EB030C3321F00D3351F070
:100200000F91089594D2F3E0E0EF27E09CD20AD05A
:10021000BCD2EECF8CD2F3E0E8EF28E094D202D04B
:10022000B4D2E6CF0F9306E1009350070F910895E3
:100230002054686973206973207468652049443AC2
:10024000200075D2F2E0E0E320E17DD203D09DD220
:100250006ED208950F937F930091EB030A3044F41C
:10026000005DB1D2009300C090D20F917F910895AC
:1002700071E3709300C00A50F3CF09D0D3E0C0E817
:10028000F7D183D2D3E0C0EAF8D17FD20895D4E089
:10029000C0E6DFD17AD2D3E0C0E4E0D176D2D4E0B8
:1002A000C0E6D7D172D2D3E0C0E6DDD16ED23F93A3
:1002B0003AEA3F910895D4E0C0E6C6D192E065D213
:1002C0000895D4E0C0E0BBD160D20F9300910B043D
:1002D0000093EB03BFDF59D22AD20F910895B3E008
:1002E000A0E04F9341E04D93B930D9F74F910FEF14
:1002F00007BB00E008BB0FE00EBF0FEF0DBF00E033
:100300000BBF00EC05BF00E808B900E900939A00B4
:100310000EE000939D000F931F9308E010E01093F0
:100320009800009399001F910F91D3E0C0E4789456
:100330001AC1EF01FFFFFFFF0100030F0013EF01E0
:10034000FFFFFFFF0100031D0021EF01FFFFFFFF83
:100350000100070C0000000F0023EF01FFFFFFFF6B
:100360000100030100050800EF01FFFFFFFF01008E
:10037000040201000800EF01FFFFFFFF010004027B
:1003800002000900EF01FFFFFFFF01000305000964
:10039000EF01FFFFFFFF010006060100EF01FFFF75
:1003A000FFFF0100030300070800EF01FFFFFFFF4D
:1003B000010008040100000046005400EF01FFFFA7
:1003C000FFFF010008040100EF01FFFFFFFF07002E
:1003D0000500000AEF01FFFFFFFF07000700000A0A
:1003E000204D6174636820446966666572656E7449
:1003F0002020546F6D61730020204E656C736F6E0A
:10040000202047656F7267652057656C636F6D6567
:10041000212050726573732050696E7320302074F0
:100420006F203320746F2073746172742E0020303B
:100430002E20436F6D706172652E202020202020B9
:10044000202020322E20536561726368206461741D
:1004500061626173652E20312E204C6F636174657B
:100460002E20202020202020202020332E204164F8
:100470006D696E2073657474696E67732E20203405
:100480002E2053746F72652066696E6765722E2028
:10049000202020362E2046756C6C2074656D706CA3
:1004A000617465732E2020352E2044656C6574655B
:1004B0002E20202020202020202020372E20526592
:1004C0007475726E2E2020202020202020202020D5
:1004D000456E746572204944206E756D6265723A8E
:1004E00020002020416363657373206772616E741E
:1004F00065642E2020008AE07095089410F493988B
:1005000002C0939A00001CD01BD000000000000025
:10051000000076958A9591F7939A089589E08299DB
:10052000FECF0ED00DD00CD0889482990894000094
:100530000000000000008A9511F07795F3CF089530
:10054000009100010A95F1F70000089501B30860D9
:1005500001BB939A01B30B7701BB02E10093000149
:10056000089501E00895BED0F1DFE1D096D110D01A
:100570000CD10BD10AD1DBD092E004D00ED030D117
:10058000D6D0FBCF0F9300E0009350070F91089552
:10059000F4E0E8E025E2D7D00895C9D0F4E0EEE237
:1005A00020E5D1D0F2D00895C2D0F4E0EEE720E506
:1005B000CAD0EBD00895BBD0F4E0EEEC23E1C3D079
:1005C000E4D00895B4D0F4E0E2EE23E1BCD0DDD075
:1005D00008951F934F935F932F9320E002D004D090
:1005E00006C0F3E0E0E00895C0EED3E00895419145
:1005F00019912395411779F42A30C9F76F9363E075
:100600009FD04BD1CBD093D06F91ACD02F915F9135
:100610004F911F9108956F936FE06F919ED0BED060
:100620003CD1A0D03AD19ED038D12F915F914F913B
:100630001F91A3CF2CE0F3E0E2E347D008952CE034
:10064000F3E0EEE342D0089520E1F3E0EAE43DD0A8
:1006500008952CE0F3E0EAE538D008952DE0F3E0CA
:10066000E8E633D008952DE0F3E0E6E72ED00895D4
:100670002CE0F3E0E4E829D008952CE0F3E0E0E991
:1006800024D090935209792F36DF5ADF9F9390E060
:10069000792F31DF55DF9F915F93592F5093540984
:1006A000525F50935409752F26DF509356095F917E
:1006B00093956BD008952CE0F3E0ECE906D0089513
:1006C00021E1F3E0EAEA01D008951F93C895102DC7
:1006D000712F11DF35DF2A95203011F03196F6CFDA
:1006E0001F91089561D000E30093008062D00093D1
:1006F000008069D0009300801ED00FE3009300803B
:100700001AD008E00093008016D001E0009300802A
:1007100012D008E3009300800ED00EE0009300801A
:100720000AD006E00093008006D00027089501E07B
:100730000093008008957091008077FDFCCF0895AC
:10074000F3E0E0EE26E0C895102D109300C0F3DF33
:100750002A9511F03196F7CF0895F3E0E6EE2AE0FE
:10076000F2DF089530D02FD02ED02DD02CD02BD02A
:100770002AD029D028D027D026D025D024D023D0C5
:1007800022D021D020D01FD00895ECDFEBDF0895D8
:100790001AD019D018D017D016D00895E3DFE2DFB1
:1007A000E1DFE0DFDFDF0895BEE4ADE11197F1F7AF
:1007B0000895B5E1A8E51197F1F70895B0E0A3E831
:1007C0001197F1F70895BFEFAFEF1197F1F7089583
:1007D0001F9310919C0019931F911895F8940895F8
:1007E00002D018D0089550B35F3FE9F3A0DF089519
:1007F00050E020E000EF02B90FE003B9E4DF51B1AF
:100800000FE002B900EF03B9DEDF21B1520F5F3F05
:1008100079F308955F3799F05F3B99F05F3D99F068
:100820005F3E09F0089518D0BFDEDDDF5F3769F065
:100830005F3B69F05F3D69F05F3E69F09ECE60DC32
:100840009CCE69DC9ACEC1DC98CE17DD96CE33DD26
:1008500094CE37DD92CE91CEB8DC009150070631B0
:1008600011F08BCE0895AEDE8DDE8FDFDDCF4F939E
:10087000F3E0E8EC08D04F9108954F93F3E0E4EDF6
:1008800002D04F9108954CE0B3E0A0E0C8953196B6
:100890004A950D924030D1F708951FEF18BB93DFB2
:1008A00092DF91DF90DF8FDF8EDF10E018BB0895BD
:00000001FF
